:100000000C9462000C948A000C948A000C948A0070
:100010000C948A000C948A000C948A000C948A0038
:100020000C948A000C948A000C948A000C948A0028
:100030000C948A000C948A000C948A000C948A0018
:100040000C94F7020C948A000C94C5020C949F0245
:100050000C948A000C948A000C948A000C948A00F8
:100060000C948A000C948A000000000024002700F1
:100070002A0000000000250028002B0000000000DE
:1000800023002600290004040404040404040202DA
:100090000202020203030303030301020408102007
:1000A0004080010204081020010204081020000012
:1000B0000008000201000003040700000000000027
:1000C0000000870511241FBECFEFD8E0DEBFCDBFF3
:1000D00012E0A0E0B1E0ECEBFBE002C005900D9275
:1000E000A033B107D9F722E0A0E3B2E001C01D922E
:1000F000AA3EB207E1F710E0C2E6D0E004C02197C3
:10010000FE010E94D605C136D107C9F70E944103FE
:100110000C94DC050C940000AF92BF92CF92DF925A
:10012000EF92FF920F931F93CF93DF936C017B01AC
:100130008B01040F151FEB015E01AE18BF08C0173D
:10014000D10759F06991D601ED91FC910190F081B0
:10015000E02DC6010995892B79F7C501DF91CF9173
:100160001F910F91FF90EF90DF90CF90BF90AF90D5
:100170000895FC01538D448D252F30E0842F90E0AD
:10018000821B930B541710F0CF9608950197089592
:10019000FC01918D828D981761F0A28DAE0FBF2F5B
:1001A000B11D5D968C91928D9F5F9F73928F90E0B1
:1001B00008958FEF9FEF0895FC01918D828D981720
:1001C00031F0828DE80FF11D858D90E008958FEF5D
:1001D0009FEF0895FC01918D228D892F90E0805C26
:1001E0009F4F821B91098F73992708958DE492E0A8
:1001F0000E94EA0021E0892B09F420E0822F089573
:1002000080E090E0892B29F00E94F60081110C9487
:1002100000000895FC01A48DA80FB92FB11DA35AA9
:10022000BF4F2C91848D90E001968F739927848F16
:10023000A689B7892C93A089B1898C918370806439
:100240008C93938D848D981306C00288F389E02DDA
:1002500080818F7D80830895EF92FF920F931F938B
:10026000CF93DF93EC0181E0888F9B8D8C8D981369
:100270001AC0E889F989808185FF15C09FB7F89475
:10028000EE89FF896083E889F989808183708064C1
:1002900080839FBF81E090E0DF91CF911F910F910C
:1002A000FF90EF900895F62E0B8D10E00F5F1F4F1B
:1002B0000F731127E02E8C8D8E110CC00FB607FC2A
:1002C000FACFE889F989808185FFF5CFCE010E94B8
:1002D0000A01F1CFEB8DEC0FFD2FF11DE35AFF4F1B
:1002E000F0829FB7F8940B8FEA89FB898081806246
:1002F000CFCFCF93DF93EC01888D8823B9F0AA8903
:10030000BB89E889F9898C9185FD03C0808186FDD0
:100310000DC00FB607FCF7CF8C9185FFF2CF80811F
:1003200085FFEDCFCE010E940A01E9CFDF91CF9189
:100330000895833081F028F4813099F08230A9F05B
:1003400008958730A9F08830C9F08430B1F48091E5
:1003500080008F7D03C0809180008F778093800024
:10036000089584B58F7784BD089584B58F7DFBCFC4
:100370008091B0008F778093B00008958091B00095
:100380008F7DF9CFCF93DF93282F30E0F901E2552D
:10039000FF4F8491F901E656FF4FD491F901EA57D6
:1003A000FF4FC491CC23A1F081110E949901EC2F41
:1003B000F0E0EE0FFF1FE458FF4FA591B491EC91D0
:1003C000ED2381E090E009F480E0DF91CF91089582
:1003D00080E090E0FACF1F93CF93DF93282F30E097
:1003E000F901E255FF4F8491F901E656FF4FD49190
:1003F000F901EA57FF4FC491CC23A9F0162F8111C0
:100400000E949901EC2FF0E0EE0FFF1FEE58FF4F16
:10041000A591B4918FB7F894EC91111108C0D095C3
:10042000DE23DC938FBFDF91CF911F910895DE2BE8
:10043000F8CFCF93DF9390E0FC01E656FF4F249175
:100440008A579F4FFC0184918823D1F090E0880F58
:10045000991FFC01E859FF4FA591B491FC01EE589A
:10046000FF4FC591D49161110EC09FB7F8948C9144
:10047000E22FE0958E238C932881E223E8839FBFAF
:10048000DF91CF9108958FB7F894EC91E22BEC9324
:100490008FBFF6CF8E3008F08E50877080648093C7
:1004A0007C0080917A00806480937A0080917A0049
:1004B00086FDFCCF809178009091790008953FB738
:1004C000F8948091350290913602A0913702B09154
:1004D000380226B5A89B05C02F3F19F00196A11D33
:1004E000B11D3FBFBA2FA92F982F8827BC01CD017E
:1004F000620F711D811D911D42E0660F771F881FDD
:10050000991F4A95D1F70895FC0101900020E9F761
:100510003197AF01481B590BBC018DE492E00C945C
:100520008C00CF93DF930E948402EC0182E191E082
:100530000E9484028C0F9D1FDF91CF9108951F921E
:100540000F920FB60F9211242F933F934F935F9307
:100550006F937F938F939F93AF93BF93EF93FF938B
:100560008DE492E00E940A01FF91EF91BF91AF915B
:100570009F918F917F916F915F914F913F912F91BB
:100580000F900FBE0F901F9018951F920F920FB6ED
:100590000F9211242F938F939F93EF93FF93E091EA
:1005A0005D02F0915E028081E0916302F09164024D
:1005B00082FD1BC09081809166028F5F8F732091B6
:1005C0006702821741F0E0916602F0E0E35BFD4FC5
:1005D000958F80936602FF91EF919F918F912F915C
:1005E0000F900FBE0F901F9018958081F4CF1F922F
:1005F0000F920FB60F9211242F933F938F939F93D7
:10060000AF93BF938091310290913202A091330257
:10061000B09134023091300223E0230F2D3758F58A
:100620000196A11DB11D2093300280933102909359
:100630003202A0933302B09334028091350290913C
:100640003602A0913702B09138020196A11DB11D6A
:100650008093350290933602A0933702B09338020C
:10066000BF91AF919F918F913F912F910F900FBEAE
:100670000F901F90189526E8230F0296A11DB11D1B
:10068000D2CFCF93DF93CDB7DEB7A1970FB6F89453
:10069000DEBF0FBECDBF789484B5826084BD84B5C3
:1006A000816084BD85B5826085BD85B5816085BD6D
:1006B00080916E00816080936E0010928100809125
:1006C00081008260809381008091810081608093AD
:1006D0008100809180008160809380008091B100D2
:1006E00084608093B1008091B00081608093B000FD
:1006F00080917A00846080937A0080917A00826091
:1007000080937A0080917A00816080937A00809152
:100710007A00806880937A001092C10060E088E0DF
:100720000E94190260E087E00E94190261E08CE0FB
:100730000E94190261E08DE00E941902E0915D02C1
:10074000F0915E0282E08083E0915902F0915A02BA
:100750001082E0915B02F0915C028FEC808310923A
:100760006502E0916102F091620286E08083E0918F
:100770005F02F0916002808180618083E0915F027E
:10078000F0916002808188608083E0915F02F09147
:100790006002808180688083E0915F02F091600256
:1007A00080818F7D808385E191E00E9491029AE0B3
:1007B000492E512C612C712C20E0222E20E0322E6B
:1007C00005E010E088E00E94C20190934C02809303
:1007D0004B0287E00E94C20190934A028093490233
:1007E0008EE00E944A02893F93400CF01BC1109397
:1007F000480200934702109346020093450220915D
:10080000450230914602809143029091440228179C
:10081000390759F4209147023091480280914102F2
:10082000909142022817390721F08BE291E00E9453
:10083000910220914B0230914C0280913F029091A5
:1008400040022817390721F081E491E00E949102CB
:100850008091490290914A0220913D0230913E02DE
:100860008217930771F020914B0230914C02213096
:10087000310539F0019709F0E9C083E591E00E9464
:10088000910280914B0290914C0220913F02309155
:1008900040028217930709F0DCC040914902509151
:1008A0004A0220913D0230913E024217530709F05F
:1008B000D0C04091450250914602209143023091B0
:1008C00044024217530709F0C4C0409147025091B7
:1008D000480220914102309142024217530709F029
:1008E000B8C080913B0290913C02019690933C02EB
:1008F00080933B0280913B0290913C02892B09F04E
:1009000040C081EF91E00E948402C0903902D090F3
:100910003A020D2C000CEE08FF08F7FEE2C06DE273
:100920008DE492E00E942C0122273327A9012C1983
:100930003D094E095F0919A2CE0181967C01CA01C9
:10094000B901A30192010E94B405605DF7016293B1
:100950007F01211531054105510589F7E114F104A5
:1009600019F0C7010E94840282E191E00E94840292
:100970008091390290913A02019690933A028093C5
:1009800039020E945F024B015C0184EFC82EDD2416
:10099000D394E12CF12C0E945F02681979098A092D
:1009A0009B09683E734081059105A8F3F1E0CF1AD9
:1009B000D108E108F10828EE820E23E0921EA11C66
:1009C000B11CC114D104E104F10429F780914B0258
:1009D00090914C029093400280933F028091490293
:1009E00090914A0290933E0280933D02809145028D
:1009F0009091460290934402809343028091470273
:100A00009091480290934202809341022114310454
:100A100009F4D8CE0E94F600882309F4D3CE0E94B0
:100A20000000D0CE8EE00E944A028F3F93404CF4EB
:100A3000109348020093470210924602109245021A
:100A4000DECE1092480210924702F6CF88E691E07F
:100A500016CF009751F58091490290914A02009774
:100A600089F410923C0210923B0260E08CE00E94FC
:100A7000EB0160E08DE00E94EB0187E791E00E94CE
:100A8000910238CF019721F510923C0210923B025F
:100A9000609147028CE00E94EB01609145028DE07D
:100AA0000E94EB0181E991E0EACF019789F410926D
:100AB0003C0210923B02609147028CE00E94EB01E5
:100AC000609145028DE00E94EB0183EC91E0D7CF6D
:100AD00061E08CE00E94190260E08CE00E94EB0172
:100AE00009CFA701960119A2CE0181967C01CA0106
:100AF000B901A30192010E94B405605DF701629300
:100B00007F01211531054105510589F727CFEDE416
:100B1000F2E01382128288EE93E0A0E0B0E08483DA
:100B20009583A683B78384E091E09183808385ECED
:100B300090E09587848784EC90E09787868780ECA7
:100B400090E0918B808B81EC90E0938B828B82EC98
:100B500090E0958B848B86EC90E0978B868B118E42
:100B6000128E138E148E0895A1E21A2EAA1BBB1B9F
:100B7000FD010DC0AA1FBB1FEE1FFF1FA217B30769
:100B8000E407F50720F0A21BB30BE40BF50B661F7F
:100B9000771F881F991F1A9469F760957095809543
:100BA00090959B01AC01BD01CF010895EE0FFF1F91
:0C0BB0000590F491E02D0994F894FFCF1B
:100BBC00000000002C018C00B9007901EA00C8008B
:100BCC00DC000D0A0050726F6772616D6120496E16
:100BDC00696369616C697A61646F00416A757374E9
:100BEC00616E646F20496C756D696E6163696F6EBF
:100BFC000043616D6269616E646F206465204D6FA6
:100C0C00646F004D6F76696D69656E746F20446515
:100C1C007465637461646F0053696E204D6F7669FF
:100C2C006D69656E746F0053696E206D6F76696DBA
:100C3C0069656E746F732C2061706167616E646F8F
:100C4C00004D6F646F20446961206F204E6F6368A4
:100C5C00652C20496C756D696E6163696F6E2041FE
:100C6C0075746F6D61746963612041637469766139
:100C7C006461004D6F646F204C6563747572612CF8
:100C8C0020496C756D696E6163696F6E2041757476
:100C9C006F6D61746963612041637469766164612D
:100CAC00002D2D2D2D2D2D2D2D2D2D2D2D2D2D2D95
:100CBC002D2D2D2D2D2D2D2D2D2D2D2D2D2D2D2D58
:100CCC002D2D2D2D2D2D2D2D2D2D2D2D2D2D2D2D48
:100CDC002D2D2D206C656374757261204E6F200074
:00000001FF
